{
  "_format": "hh-sol-artifact-1",
  "contractName": "TimelockController",
  "sourceName": "src/solidity/contracts/openzepplin/governance/TimelockController.sol",
  "abi": [
    {
      "inputs": [
        {
          "internalType": "uint256",
          "name": "minDelay",
          "type": "uint256"
        },
        {
          "internalType": "address[]",
          "name": "proposers",
          "type": "address[]"
        },
        {
          "internalType": "address[]",
          "name": "executors",
          "type": "address[]"
        }
      ],
      "stateMutability": "nonpayable",
      "type": "constructor"
    },
    {
      "anonymous": false,
      "inputs": [
        {
          "indexed": true,
          "internalType": "bytes32",
          "name": "id",
          "type": "bytes32"
        },
        {
          "indexed": true,
          "internalType": "uint256",
          "name": "index",
          "type": "uint256"
        },
        {
          "indexed": false,
          "internalType": "address",
          "name": "target",
          "type": "address"
        },
        {
          "indexed": false,
          "internalType": "uint256",
          "name": "value",
          "type": "uint256"
        },
        {
          "indexed": false,
          "internalType": "bytes",
          "name": "data",
          "type": "bytes"
        }
      ],
      "name": "CallExecuted",
      "type": "event"
    },
    {
      "anonymous": false,
      "inputs": [
        {
          "indexed": true,
          "internalType": "bytes32",
          "name": "id",
          "type": "bytes32"
        },
        {
          "indexed": true,
          "internalType": "uint256",
          "name": "index",
          "type": "uint256"
        },
        {
          "indexed": false,
          "internalType": "address",
          "name": "target",
          "type": "address"
        },
        {
          "indexed": false,
          "internalType": "uint256",
          "name": "value",
          "type": "uint256"
        },
        {
          "indexed": false,
          "internalType": "bytes",
          "name": "data",
          "type": "bytes"
        },
        {
          "indexed": false,
          "internalType": "bytes32",
          "name": "predecessor",
          "type": "bytes32"
        },
        {
          "indexed": false,
          "internalType": "uint256",
          "name": "delay",
          "type": "uint256"
        }
      ],
      "name": "CallScheduled",
      "type": "event"
    },
    {
      "anonymous": false,
      "inputs": [
        {
          "indexed": true,
          "internalType": "bytes32",
          "name": "id",
          "type": "bytes32"
        }
      ],
      "name": "Cancelled",
      "type": "event"
    },
    {
      "anonymous": false,
      "inputs": [
        {
          "indexed": false,
          "internalType": "uint256",
          "name": "oldDuration",
          "type": "uint256"
        },
        {
          "indexed": false,
          "internalType": "uint256",
          "name": "newDuration",
          "type": "uint256"
        }
      ],
      "name": "MinDelayChange",
      "type": "event"
    },
    {
      "anonymous": false,
      "inputs": [
        {
          "indexed": true,
          "internalType": "bytes32",
          "name": "role",
          "type": "bytes32"
        },
        {
          "indexed": true,
          "internalType": "bytes32",
          "name": "previousAdminRole",
          "type": "bytes32"
        },
        {
          "indexed": true,
          "internalType": "bytes32",
          "name": "newAdminRole",
          "type": "bytes32"
        }
      ],
      "name": "RoleAdminChanged",
      "type": "event"
    },
    {
      "anonymous": false,
      "inputs": [
        {
          "indexed": true,
          "internalType": "bytes32",
          "name": "role",
          "type": "bytes32"
        },
        {
          "indexed": true,
          "internalType": "address",
          "name": "account",
          "type": "address"
        },
        {
          "indexed": true,
          "internalType": "address",
          "name": "sender",
          "type": "address"
        }
      ],
      "name": "RoleGranted",
      "type": "event"
    },
    {
      "anonymous": false,
      "inputs": [
        {
          "indexed": true,
          "internalType": "bytes32",
          "name": "role",
          "type": "bytes32"
        },
        {
          "indexed": true,
          "internalType": "address",
          "name": "account",
          "type": "address"
        },
        {
          "indexed": true,
          "internalType": "address",
          "name": "sender",
          "type": "address"
        }
      ],
      "name": "RoleRevoked",
      "type": "event"
    },
    {
      "inputs": [],
      "name": "DEFAULT_ADMIN_ROLE",
      "outputs": [
        {
          "internalType": "bytes32",
          "name": "",
          "type": "bytes32"
        }
      ],
      "stateMutability": "view",
      "type": "function"
    },
    {
      "inputs": [],
      "name": "EXECUTOR_ROLE",
      "outputs": [
        {
          "internalType": "bytes32",
          "name": "",
          "type": "bytes32"
        }
      ],
      "stateMutability": "view",
      "type": "function"
    },
    {
      "inputs": [],
      "name": "PROPOSER_ROLE",
      "outputs": [
        {
          "internalType": "bytes32",
          "name": "",
          "type": "bytes32"
        }
      ],
      "stateMutability": "view",
      "type": "function"
    },
    {
      "inputs": [],
      "name": "TIMELOCK_ADMIN_ROLE",
      "outputs": [
        {
          "internalType": "bytes32",
          "name": "",
          "type": "bytes32"
        }
      ],
      "stateMutability": "view",
      "type": "function"
    },
    {
      "inputs": [
        {
          "internalType": "bytes32",
          "name": "id",
          "type": "bytes32"
        }
      ],
      "name": "cancel",
      "outputs": [],
      "stateMutability": "nonpayable",
      "type": "function"
    },
    {
      "inputs": [
        {
          "internalType": "address",
          "name": "target",
          "type": "address"
        },
        {
          "internalType": "uint256",
          "name": "value",
          "type": "uint256"
        },
        {
          "internalType": "bytes",
          "name": "data",
          "type": "bytes"
        },
        {
          "internalType": "bytes32",
          "name": "predecessor",
          "type": "bytes32"
        },
        {
          "internalType": "bytes32",
          "name": "salt",
          "type": "bytes32"
        }
      ],
      "name": "execute",
      "outputs": [],
      "stateMutability": "payable",
      "type": "function"
    },
    {
      "inputs": [
        {
          "internalType": "address[]",
          "name": "targets",
          "type": "address[]"
        },
        {
          "internalType": "uint256[]",
          "name": "values",
          "type": "uint256[]"
        },
        {
          "internalType": "bytes[]",
          "name": "datas",
          "type": "bytes[]"
        },
        {
          "internalType": "bytes32",
          "name": "predecessor",
          "type": "bytes32"
        },
        {
          "internalType": "bytes32",
          "name": "salt",
          "type": "bytes32"
        }
      ],
      "name": "executeBatch",
      "outputs": [],
      "stateMutability": "payable",
      "type": "function"
    },
    {
      "inputs": [],
      "name": "getMinDelay",
      "outputs": [
        {
          "internalType": "uint256",
          "name": "duration",
          "type": "uint256"
        }
      ],
      "stateMutability": "view",
      "type": "function"
    },
    {
      "inputs": [
        {
          "internalType": "bytes32",
          "name": "role",
          "type": "bytes32"
        }
      ],
      "name": "getRoleAdmin",
      "outputs": [
        {
          "internalType": "bytes32",
          "name": "",
          "type": "bytes32"
        }
      ],
      "stateMutability": "view",
      "type": "function"
    },
    {
      "inputs": [
        {
          "internalType": "bytes32",
          "name": "id",
          "type": "bytes32"
        }
      ],
      "name": "getTimestamp",
      "outputs": [
        {
          "internalType": "uint256",
          "name": "timestamp",
          "type": "uint256"
        }
      ],
      "stateMutability": "view",
      "type": "function"
    },
    {
      "inputs": [
        {
          "internalType": "bytes32",
          "name": "role",
          "type": "bytes32"
        },
        {
          "internalType": "address",
          "name": "account",
          "type": "address"
        }
      ],
      "name": "grantRole",
      "outputs": [],
      "stateMutability": "nonpayable",
      "type": "function"
    },
    {
      "inputs": [
        {
          "internalType": "bytes32",
          "name": "role",
          "type": "bytes32"
        },
        {
          "internalType": "address",
          "name": "account",
          "type": "address"
        }
      ],
      "name": "hasRole",
      "outputs": [
        {
          "internalType": "bool",
          "name": "",
          "type": "bool"
        }
      ],
      "stateMutability": "view",
      "type": "function"
    },
    {
      "inputs": [
        {
          "internalType": "address",
          "name": "target",
          "type": "address"
        },
        {
          "internalType": "uint256",
          "name": "value",
          "type": "uint256"
        },
        {
          "internalType": "bytes",
          "name": "data",
          "type": "bytes"
        },
        {
          "internalType": "bytes32",
          "name": "predecessor",
          "type": "bytes32"
        },
        {
          "internalType": "bytes32",
          "name": "salt",
          "type": "bytes32"
        }
      ],
      "name": "hashOperation",
      "outputs": [
        {
          "internalType": "bytes32",
          "name": "hash",
          "type": "bytes32"
        }
      ],
      "stateMutability": "pure",
      "type": "function"
    },
    {
      "inputs": [
        {
          "internalType": "address[]",
          "name": "targets",
          "type": "address[]"
        },
        {
          "internalType": "uint256[]",
          "name": "values",
          "type": "uint256[]"
        },
        {
          "internalType": "bytes[]",
          "name": "datas",
          "type": "bytes[]"
        },
        {
          "internalType": "bytes32",
          "name": "predecessor",
          "type": "bytes32"
        },
        {
          "internalType": "bytes32",
          "name": "salt",
          "type": "bytes32"
        }
      ],
      "name": "hashOperationBatch",
      "outputs": [
        {
          "internalType": "bytes32",
          "name": "hash",
          "type": "bytes32"
        }
      ],
      "stateMutability": "pure",
      "type": "function"
    },
    {
      "inputs": [
        {
          "internalType": "bytes32",
          "name": "id",
          "type": "bytes32"
        }
      ],
      "name": "isOperation",
      "outputs": [
        {
          "internalType": "bool",
          "name": "pending",
          "type": "bool"
        }
      ],
      "stateMutability": "view",
      "type": "function"
    },
    {
      "inputs": [
        {
          "internalType": "bytes32",
          "name": "id",
          "type": "bytes32"
        }
      ],
      "name": "isOperationDone",
      "outputs": [
        {
          "internalType": "bool",
          "name": "done",
          "type": "bool"
        }
      ],
      "stateMutability": "view",
      "type": "function"
    },
    {
      "inputs": [
        {
          "internalType": "bytes32",
          "name": "id",
          "type": "bytes32"
        }
      ],
      "name": "isOperationPending",
      "outputs": [
        {
          "internalType": "bool",
          "name": "pending",
          "type": "bool"
        }
      ],
      "stateMutability": "view",
      "type": "function"
    },
    {
      "inputs": [
        {
          "internalType": "bytes32",
          "name": "id",
          "type": "bytes32"
        }
      ],
      "name": "isOperationReady",
      "outputs": [
        {
          "internalType": "bool",
          "name": "ready",
          "type": "bool"
        }
      ],
      "stateMutability": "view",
      "type": "function"
    },
    {
      "inputs": [
        {
          "internalType": "bytes32",
          "name": "role",
          "type": "bytes32"
        },
        {
          "internalType": "address",
          "name": "account",
          "type": "address"
        }
      ],
      "name": "renounceRole",
      "outputs": [],
      "stateMutability": "nonpayable",
      "type": "function"
    },
    {
      "inputs": [
        {
          "internalType": "bytes32",
          "name": "role",
          "type": "bytes32"
        },
        {
          "internalType": "address",
          "name": "account",
          "type": "address"
        }
      ],
      "name": "revokeRole",
      "outputs": [],
      "stateMutability": "nonpayable",
      "type": "function"
    },
    {
      "inputs": [
        {
          "internalType": "address",
          "name": "target",
          "type": "address"
        },
        {
          "internalType": "uint256",
          "name": "value",
          "type": "uint256"
        },
        {
          "internalType": "bytes",
          "name": "data",
          "type": "bytes"
        },
        {
          "internalType": "bytes32",
          "name": "predecessor",
          "type": "bytes32"
        },
        {
          "internalType": "bytes32",
          "name": "salt",
          "type": "bytes32"
        },
        {
          "internalType": "uint256",
          "name": "delay",
          "type": "uint256"
        }
      ],
      "name": "schedule",
      "outputs": [],
      "stateMutability": "nonpayable",
      "type": "function"
    },
    {
      "inputs": [
        {
          "internalType": "address[]",
          "name": "targets",
          "type": "address[]"
        },
        {
          "internalType": "uint256[]",
          "name": "values",
          "type": "uint256[]"
        },
        {
          "internalType": "bytes[]",
          "name": "datas",
          "type": "bytes[]"
        },
        {
          "internalType": "bytes32",
          "name": "predecessor",
          "type": "bytes32"
        },
        {
          "internalType": "bytes32",
          "name": "salt",
          "type": "bytes32"
        },
        {
          "internalType": "uint256",
          "name": "delay",
          "type": "uint256"
        }
      ],
      "name": "scheduleBatch",
      "outputs": [],
      "stateMutability": "nonpayable",
      "type": "function"
    },
    {
      "inputs": [
        {
          "internalType": "bytes4",
          "name": "interfaceId",
          "type": "bytes4"
        }
      ],
      "name": "supportsInterface",
      "outputs": [
        {
          "internalType": "bool",
          "name": "",
          "type": "bool"
        }
      ],
      "stateMutability": "view",
      "type": "function"
    },
    {
      "inputs": [
        {
          "internalType": "uint256",
          "name": "newDelay",
          "type": "uint256"
        }
      ],
      "name": "updateDelay",
      "outputs": [],
      "stateMutability": "nonpayable",
      "type": "function"
    },
    {
      "stateMutability": "payable",
      "type": "receive"
    }
  ],
  "bytecode": "0x60806040523480156200001157600080fd5b5060405162003560380380620035608339818101604052810190620000379190620005c1565b620000697f5f58e3a2316349923ce3780f8d587db2d72378aed66a8261c916544fa6846ca580620002f660201b60201c565b620000bb7fb09aa5aeb3702cfd50b6b62bc4532604938f21248a27a1d5ca736082b6819cc17f5f58e3a2316349923ce3780f8d587db2d72378aed66a8261c916544fa6846ca5620002f660201b60201c565b6200010d7fd8aa0f3194971a2a116679f7c2090f6939c8d4e01a2a8d7e41d55e5351469e637f5f58e3a2316349923ce3780f8d587db2d72378aed66a8261c916544fa6846ca5620002f660201b60201c565b6200014e7f5f58e3a2316349923ce3780f8d587db2d72378aed66a8261c916544fa6846ca5620001426200035960201b60201c565b6200036160201b60201c565b620001807f5f58e3a2316349923ce3780f8d587db2d72378aed66a8261c916544fa6846ca5306200036160201b60201c565b60005b82518110156200021457620002007fb09aa5aeb3702cfd50b6b62bc4532604938f21248a27a1d5ca736082b6819cc1848381518110620001ec577f4e487b7100000000000000000000000000000000000000000000000000000000600052603260045260246000fd5b60200260200101516200036160201b60201c565b806200020c9062000778565b905062000183565b5060005b8151811015620002a957620002957fd8aa0f3194971a2a116679f7c2090f6939c8d4e01a2a8d7e41d55e5351469e6383838151811062000281577f4e487b7100000000000000000000000000000000000000000000000000000000600052603260045260246000fd5b60200260200101516200036160201b60201c565b80620002a19062000778565b905062000218565b50826002819055507f11c24f4ead16507c69ac467fbd5e4eed5fb5c699626d2cc6d66421df253886d5600084604051620002e59291906200066b565b60405180910390a150505062000869565b600062000309836200037760201b60201c565b905081600080858152602001908152602001600020600101819055508181847fbd79b86ffe0ab8e8776151514217cd7cacd52c909f66475c3af44e129f0b00ff60405160405180910390a4505050565b600033905090565b6200037382826200039660201b60201c565b5050565b6000806000838152602001908152602001600020600101549050919050565b620003a882826200048760201b60201c565b6200048357600160008084815260200190815260200160002060000160008373ffffffffffffffffffffffffffffffffffffffff1673ffffffffffffffffffffffffffffffffffffffff16815260200190815260200160002060006101000a81548160ff021916908315150217905550620004286200035960201b60201c565b73ffffffffffffffffffffffffffffffffffffffff168173ffffffffffffffffffffffffffffffffffffffff16837f2f8788117e7eff1d82e926ec794901d17c78024a50270940304540a733656f0d60405160405180910390a45b5050565b600080600084815260200190815260200160002060000160008373ffffffffffffffffffffffffffffffffffffffff1673ffffffffffffffffffffffffffffffffffffffff16815260200190815260200160002060009054906101000a900460ff16905092915050565b6000620005086200050284620006c1565b62000698565b905080838252602082019050828560208602820111156200052857600080fd5b60005b858110156200055c578162000541888262000566565b8452602084019350602083019250506001810190506200052b565b5050509392505050565b600081519050620005778162000835565b92915050565b600082601f8301126200058f57600080fd5b8151620005a1848260208601620004f1565b91505092915050565b600081519050620005bb816200084f565b92915050565b600080600060608486031215620005d757600080fd5b6000620005e786828701620005aa565b935050602084015167ffffffffffffffff8111156200060557600080fd5b62000613868287016200057d565b925050604084015167ffffffffffffffff8111156200063157600080fd5b6200063f868287016200057d565b9150509250925092565b62000654816200072e565b82525050565b620006658162000724565b82525050565b600060408201905062000682600083018562000649565b6200069160208301846200065a565b9392505050565b6000620006a4620006b7565b9050620006b2828262000742565b919050565b6000604051905090565b600067ffffffffffffffff821115620006df57620006de620007f5565b5b602082029050602081019050919050565b6000620006fd8262000704565b9050919050565b600073ffffffffffffffffffffffffffffffffffffffff82169050919050565b6000819050919050565b60006200073b8262000724565b9050919050565b6200074d8262000824565b810181811067ffffffffffffffff821117156200076f576200076e620007f5565b5b80604052505050565b6000620007858262000724565b91507fffffffffffffffffffffffffffffffffffffffffffffffffffffffffffffffff821415620007bb57620007ba620007c6565b5b600182019050919050565b7f4e487b7100000000000000000000000000000000000000000000000000000000600052601160045260246000fd5b7f4e487b7100000000000000000000000000000000000000000000000000000000600052604160045260246000fd5b6000601f19601f8301169050919050565b6200084081620006f0565b81146200084c57600080fd5b50565b6200085a8162000724565b81146200086657600080fd5b50565b612ce780620008796000396000f3fe60806040526004361061014f5760003560e01c806364d62353116100b6578063b1c5f4271161006f578063b1c5f427146104d8578063c4d252f514610515578063d45c44351461053e578063d547741f1461057b578063e38335e5146105a4578063f27a0c92146105c057610156565b806364d62353146103b65780638065657f146103df5780638f2a0bb01461041c5780638f61f4f51461044557806391d1485414610470578063a217fddf146104ad57610156565b8063248a9ca311610108578063248a9ca3146102705780632ab0f529146102ad5780632f2ff15d146102ea57806331d507501461031357806336568abe14610350578063584b153e1461037957610156565b806301d5062a1461015b57806301ffc9a71461018457806307bd0265146101c15780630d3cf6fc146101ec578063134008d31461021757806313bc9f201461023357610156565b3661015657005b600080fd5b34801561016757600080fd5b50610182600480360381019061017d9190611aa7565b6105eb565b005b34801561019057600080fd5b506101ab60048036038101906101a69190611d5e565b610680565b6040516101b8919061239a565b60405180910390f35b3480156101cd57600080fd5b506101d66106fa565b6040516101e391906123b5565b60405180910390f35b3480156101f857600080fd5b5061020161071e565b60405161020e91906123b5565b60405180910390f35b610231600480360381019061022c9190611a15565b610742565b005b34801561023f57600080fd5b5061025a60048036038101906102559190611cf9565b6107c2565b604051610267919061239a565b60405180910390f35b34801561027c57600080fd5b5061029760048036038101906102929190611cf9565b6107e8565b6040516102a491906123b5565b60405180910390f35b3480156102b957600080fd5b506102d460048036038101906102cf9190611cf9565b610807565b6040516102e1919061239a565b60405180910390f35b3480156102f657600080fd5b50610311600480360381019061030c9190611d22565b61081c565b005b34801561031f57600080fd5b5061033a60048036038101906103359190611cf9565b61083d565b604051610347919061239a565b60405180910390f35b34801561035c57600080fd5b5061037760048036038101906103729190611d22565b610851565b005b34801561038557600080fd5b506103a0600480360381019061039b9190611cf9565b6108d4565b6040516103ad919061239a565b60405180910390f35b3480156103c257600080fd5b506103dd60048036038101906103d89190611d87565b6108e9565b005b3480156103eb57600080fd5b5061040660048036038101906104019190611a15565b61099c565b60405161041391906123b5565b60405180910390f35b34801561042857600080fd5b50610443600480360381019061043e9190611c1a565b6109db565b005b34801561045157600080fd5b5061045a610bf8565b60405161046791906123b5565b60405180910390f35b34801561047c57600080fd5b5061049760048036038101906104929190611d22565b610c1c565b6040516104a4919061239a565b60405180910390f35b3480156104b957600080fd5b506104c2610c86565b6040516104cf91906123b5565b60405180910390f35b3480156104e457600080fd5b506104ff60048036038101906104fa9190611b4e565b610c8d565b60405161050c91906123b5565b60405180910390f35b34801561052157600080fd5b5061053c60048036038101906105379190611cf9565b610cd2565b005b34801561054a57600080fd5b5061056560048036038101906105609190611cf9565b610d8c565b6040516105729190612532565b60405180910390f35b34801561058757600080fd5b506105a2600480360381019061059d9190611d22565b610da9565b005b6105be60048036038101906105b99190611b4e565b610dca565b005b3480156105cc57600080fd5b506105d5610fd2565b6040516105e29190612532565b60405180910390f35b7fb09aa5aeb3702cfd50b6b62bc4532604938f21248a27a1d5ca736082b6819cc161061581610fdc565b600061062589898989898961099c565b90506106318184610ff0565b6000817f4cf4410cc57040e44862ef0f45f3dd5a5e02db8eb8add648d4b0e236f1d07dca8b8b8b8b8b8a60405161066d969594939291906122d0565b60405180910390a3505050505050505050565b60007f7965db0b000000000000000000000000000000000000000000000000000000007bffffffffffffffffffffffffffffffffffffffffffffffffffffffff1916827bffffffffffffffffffffffffffffffffffffffffffffffffffffffff191614806106f357506106f2826110aa565b5b9050919050565b7fd8aa0f3194971a2a116679f7c2090f6939c8d4e01a2a8d7e41d55e5351469e6381565b7f5f58e3a2316349923ce3780f8d587db2d72378aed66a8261c916544fa6846ca581565b7fd8aa0f3194971a2a116679f7c2090f6939c8d4e01a2a8d7e41d55e5351469e6361076e816000610c1c565b610784576107838161077e611114565b61111c565b5b600061079488888888888861099c565b90506107a081856111b9565b6107af8160008a8a8a8a61125a565b6107b881611352565b5050505050505050565b6000806107ce83610d8c565b90506001811180156107e05750428111155b915050919050565b6000806000838152602001908152602001600020600101549050919050565b6000600161081483610d8c565b149050919050565b610825826107e8565b61082e81610fdc565b61083883836113b5565b505050565b60008061084983610d8c565b119050919050565b610859611114565b73ffffffffffffffffffffffffffffffffffffffff168173ffffffffffffffffffffffffffffffffffffffff16146108c6576040517f08c379a00000000000000000000000000000000000000000000000000000000081526004016108bd906124f2565b60405180910390fd5b6108d08282611495565b5050565b600060016108e183610d8c565b119050919050565b3073ffffffffffffffffffffffffffffffffffffffff163373ffffffffffffffffffffffffffffffffffffffff1614610957576040517f08c379a000000000000000000000000000000000000000000000000000000000815260040161094e906124d2565b60405180910390fd5b7f11c24f4ead16507c69ac467fbd5e4eed5fb5c699626d2cc6d66421df253886d56002548260405161098a92919061254d565b60405180910390a18060028190555050565b60008686868686866040516020016109b996959493929190612274565b6040516020818303038152906040528051906020012090509695505050505050565b7fb09aa5aeb3702cfd50b6b62bc4532604938f21248a27a1d5ca736082b6819cc1610a0581610fdc565b878790508a8a905014610a4d576040517f08c379a0000000000000000000000000000000000000000000000000000000008152600401610a4490612432565b60405180910390fd5b858590508a8a905014610a95576040517f08c379a0000000000000000000000000000000000000000000000000000000008152600401610a8c90612432565b60405180910390fd5b6000610aa78b8b8b8b8b8b8b8b610c8d565b9050610ab38184610ff0565b60005b8b8b9050811015610bea5780827f4cf4410cc57040e44862ef0f45f3dd5a5e02db8eb8add648d4b0e236f1d07dca8e8e85818110610b1d577f4e487b7100000000000000000000000000000000000000000000000000000000600052603260045260246000fd5b9050602002016020810190610b3291906119ec565b8d8d86818110610b6b577f4e487b7100000000000000000000000000000000000000000000000000000000600052603260045260246000fd5b905060200201358c8c87818110610bab577f4e487b7100000000000000000000000000000000000000000000000000000000600052603260045260246000fd5b9050602002810190610bbd9190612576565b8c8b604051610bd1969594939291906122d0565b60405180910390a380610be39061288a565b9050610ab6565b505050505050505050505050565b7fb09aa5aeb3702cfd50b6b62bc4532604938f21248a27a1d5ca736082b6819cc181565b600080600084815260200190815260200160002060000160008373ffffffffffffffffffffffffffffffffffffffff1673ffffffffffffffffffffffffffffffffffffffff16815260200190815260200160002060009054906101000a900460ff16905092915050565b6000801b81565b60008888888888888888604051602001610cae98979695949392919061232c565b60405160208183030381529060405280519060200120905098975050505050505050565b7fb09aa5aeb3702cfd50b6b62bc4532604938f21248a27a1d5ca736082b6819cc1610cfc81610fdc565b610d05826108d4565b610d44576040517f08c379a0000000000000000000000000000000000000000000000000000000008152600401610d3b906124b2565b60405180910390fd5b6001600083815260200190815260200160002060009055817fbaa1eb22f2a492ba1a5fea61b8df4d27c6c8b5f3971e63bb58fa14ff72eedb7060405160405180910390a25050565b600060016000838152602001908152602001600020549050919050565b610db2826107e8565b610dbb81610fdc565b610dc58383611495565b505050565b7fd8aa0f3194971a2a116679f7c2090f6939c8d4e01a2a8d7e41d55e5351469e63610df6816000610c1c565b610e0c57610e0b81610e06611114565b61111c565b5b868690508989905014610e54576040517f08c379a0000000000000000000000000000000000000000000000000000000008152600401610e4b90612432565b60405180910390fd5b848490508989905014610e9c576040517f08c379a0000000000000000000000000000000000000000000000000000000008152600401610e9390612432565b60405180910390fd5b6000610eae8a8a8a8a8a8a8a8a610c8d565b9050610eba81856111b9565b60005b8a8a9050811015610fbc57610fab82828d8d85818110610f06577f4e487b7100000000000000000000000000000000000000000000000000000000600052603260045260246000fd5b9050602002016020810190610f1b91906119ec565b8c8c86818110610f54577f4e487b7100000000000000000000000000000000000000000000000000000000600052603260045260246000fd5b905060200201358b8b87818110610f94577f4e487b7100000000000000000000000000000000000000000000000000000000600052603260045260246000fd5b9050602002810190610fa69190612576565b61125a565b80610fb59061288a565b9050610ebd565b50610fc681611352565b50505050505050505050565b6000600254905090565b610fed81610fe8611114565b61111c565b50565b610ff98261083d565b15611039576040517f08c379a000000000000000000000000000000000000000000000000000000000815260040161103090612472565b60405180910390fd5b611041610fd2565b811015611083576040517f08c379a000000000000000000000000000000000000000000000000000000000815260040161107a90612452565b60405180910390fd5b804261108f91906126f0565b60016000848152602001908152602001600020819055505050565b60007f01ffc9a7000000000000000000000000000000000000000000000000000000007bffffffffffffffffffffffffffffffffffffffffffffffffffffffff1916827bffffffffffffffffffffffffffffffffffffffffffffffffffffffff1916149050919050565b600033905090565b6111268282610c1c565b6111b55761114b8173ffffffffffffffffffffffffffffffffffffffff166014611576565b6111598360001c6020611576565b60405160200161116a9291906121fa565b6040516020818303038152906040526040517f08c379a00000000000000000000000000000000000000000000000000000000081526004016111ac91906123d0565b60405180910390fd5b5050565b6111c2826107c2565b611201576040517f08c379a00000000000000000000000000000000000000000000000000000000081526004016111f890612492565b60405180910390fd5b6000801b811480611217575061121681610807565b5b611256576040517f08c379a000000000000000000000000000000000000000000000000000000000815260040161124d90612412565b60405180910390fd5b5050565b60008473ffffffffffffffffffffffffffffffffffffffff168484846040516112849291906121e1565b60006040518083038185875af1925050503d80600081146112c1576040519150601f19603f3d011682016040523d82523d6000602084013e6112c6565b606091505b505090508061130a576040517f08c379a000000000000000000000000000000000000000000000000000000000815260040161130190612512565b60405180910390fd5b85877fc2617efa69bab66782fa219543714338489c4e9e178271560a91b82c3f612b58878787876040516113419493929190612234565b60405180910390a350505050505050565b61135b816107c2565b61139a576040517f08c379a000000000000000000000000000000000000000000000000000000000815260040161139190612492565b60405180910390fd5b60018060008381526020019081526020016000208190555050565b6113bf8282610c1c565b61149157600160008084815260200190815260200160002060000160008373ffffffffffffffffffffffffffffffffffffffff1673ffffffffffffffffffffffffffffffffffffffff16815260200190815260200160002060006101000a81548160ff021916908315150217905550611436611114565b73ffffffffffffffffffffffffffffffffffffffff168173ffffffffffffffffffffffffffffffffffffffff16837f2f8788117e7eff1d82e926ec794901d17c78024a50270940304540a733656f0d60405160405180910390a45b5050565b61149f8282610c1c565b1561157257600080600084815260200190815260200160002060000160008373ffffffffffffffffffffffffffffffffffffffff1673ffffffffffffffffffffffffffffffffffffffff16815260200190815260200160002060006101000a81548160ff021916908315150217905550611517611114565b73ffffffffffffffffffffffffffffffffffffffff168173ffffffffffffffffffffffffffffffffffffffff16837ff6391f5c32d9c69d2a47ea670b442974b53935d1edc7fd64eb21e047a839171b60405160405180910390a45b5050565b6060600060028360026115899190612746565b61159391906126f0565b67ffffffffffffffff8111156115d2577f4e487b7100000000000000000000000000000000000000000000000000000000600052604160045260246000fd5b6040519080825280601f01601f1916602001820160405280156116045781602001600182028036833780820191505090505b5090507f300000000000000000000000000000000000000000000000000000000000000081600081518110611662577f4e487b7100000000000000000000000000000000000000000000000000000000600052603260045260246000fd5b60200101907effffffffffffffffffffffffffffffffffffffffffffffffffffffffffffff1916908160001a9053507f7800000000000000000000000000000000000000000000000000000000000000816001815181106116ec577f4e487b7100000000000000000000000000000000000000000000000000000000600052603260045260246000fd5b60200101907effffffffffffffffffffffffffffffffffffffffffffffffffffffffffffff1916908160001a9053506000600184600261172c9190612746565b61173691906126f0565b90505b6001811115611822577f3031323334353637383961626364656600000000000000000000000000000000600f86166010811061179e577f4e487b7100000000000000000000000000000000000000000000000000000000600052603260045260246000fd5b1a60f81b8282815181106117db577f4e487b7100000000000000000000000000000000000000000000000000000000600052603260045260246000fd5b60200101907effffffffffffffffffffffffffffffffffffffffffffffffffffffffffffff1916908160001a905350600485901c94508061181b90612860565b9050611739565b5060008414611866576040517f08c379a000000000000000000000000000000000000000000000000000000000815260040161185d906123f2565b60405180910390fd5b8091505092915050565b60008135905061187f81612c55565b92915050565b60008083601f84011261189757600080fd5b8235905067ffffffffffffffff8111156118b057600080fd5b6020830191508360208202830111156118c857600080fd5b9250929050565b60008083601f8401126118e157600080fd5b8235905067ffffffffffffffff8111156118fa57600080fd5b60208301915083602082028301111561191257600080fd5b9250929050565b60008083601f84011261192b57600080fd5b8235905067ffffffffffffffff81111561194457600080fd5b60208301915083602082028301111561195c57600080fd5b9250929050565b60008135905061197281612c6c565b92915050565b60008135905061198781612c83565b92915050565b60008083601f84011261199f57600080fd5b8235905067ffffffffffffffff8111156119b857600080fd5b6020830191508360018202830111156119d057600080fd5b9250929050565b6000813590506119e681612c9a565b92915050565b6000602082840312156119fe57600080fd5b6000611a0c84828501611870565b91505092915050565b60008060008060008060a08789031215611a2e57600080fd5b6000611a3c89828a01611870565b9650506020611a4d89828a016119d7565b955050604087013567ffffffffffffffff811115611a6a57600080fd5b611a7689828a0161198d565b94509450506060611a8989828a01611963565b9250506080611a9a89828a01611963565b9150509295509295509295565b600080600080600080600060c0888a031215611ac257600080fd5b6000611ad08a828b01611870565b9750506020611ae18a828b016119d7565b965050604088013567ffffffffffffffff811115611afe57600080fd5b611b0a8a828b0161198d565b95509550506060611b1d8a828b01611963565b9350506080611b2e8a828b01611963565b92505060a0611b3f8a828b016119d7565b91505092959891949750929550565b60008060008060008060008060a0898b031215611b6a57600080fd5b600089013567ffffffffffffffff811115611b8457600080fd5b611b908b828c01611885565b9850985050602089013567ffffffffffffffff811115611baf57600080fd5b611bbb8b828c01611919565b9650965050604089013567ffffffffffffffff811115611bda57600080fd5b611be68b828c016118cf565b94509450506060611bf98b828c01611963565b9250506080611c0a8b828c01611963565b9150509295985092959890939650565b600080600080600080600080600060c08a8c031215611c3857600080fd5b60008a013567ffffffffffffffff811115611c5257600080fd5b611c5e8c828d01611885565b995099505060208a013567ffffffffffffffff811115611c7d57600080fd5b611c898c828d01611919565b975097505060408a013567ffffffffffffffff811115611ca857600080fd5b611cb48c828d016118cf565b95509550506060611cc78c828d01611963565b9350506080611cd88c828d01611963565b92505060a0611ce98c828d016119d7565b9150509295985092959850929598565b600060208284031215611d0b57600080fd5b6000611d1984828501611963565b91505092915050565b60008060408385031215611d3557600080fd5b6000611d4385828601611963565b9250506020611d5485828601611870565b9150509250929050565b600060208284031215611d7057600080fd5b6000611d7e84828501611978565b91505092915050565b600060208284031215611d9957600080fd5b6000611da7848285016119d7565b91505092915050565b6000611dbc8383611dde565b60208301905092915050565b6000611dd5848484611f45565b90509392505050565b611de7816127a0565b82525050565b611df6816127a0565b82525050565b6000611e088385612606565b9350611e13826125cd565b8060005b85811015611e4c57611e298284612682565b611e338882611db0565b9750611e3e836125ec565b925050600181019050611e17565b5085925050509392505050565b6000611e658385612617565b935083602084028501611e77846125d7565b8060005b87811015611ebd578484038952611e928284612699565b611e9d868284611dc8565b9550611ea8846125f9565b935060208b019a505050600181019050611e7b565b50829750879450505050509392505050565b6000611edb8385612628565b93507f07ffffffffffffffffffffffffffffffffffffffffffffffffffffffffffffff831115611f0a57600080fd5b602083029250611f1b83858461281e565b82840190509392505050565b611f30816127b2565b82525050565b611f3f816127be565b82525050565b6000611f518385612639565b9350611f5e83858461281e565b611f6783612902565b840190509392505050565b6000611f7e838561264a565b9350611f8b83858461281e565b611f9483612902565b840190509392505050565b6000611fab838561265b565b9350611fb883858461281e565b82840190509392505050565b6000611fcf826125e1565b611fd98185612666565b9350611fe981856020860161282d565b611ff281612902565b840191505092915050565b6000612008826125e1565b6120128185612677565b935061202281856020860161282d565b80840191505092915050565b600061203b602083612666565b915061204682612913565b602082019050919050565b600061205e602683612666565b91506120698261293c565b604082019050919050565b6000612081602383612666565b915061208c8261298b565b604082019050919050565b60006120a4602683612666565b91506120af826129da565b604082019050919050565b60006120c7602f83612666565b91506120d282612a29565b604082019050919050565b60006120ea602a83612666565b91506120f582612a78565b604082019050919050565b600061210d601783612677565b915061211882612ac7565b601782019050919050565b6000612130603183612666565b915061213b82612af0565b604082019050919050565b6000612153601183612677565b915061215e82612b3f565b601182019050919050565b6000612176602b83612666565b915061218182612b68565b604082019050919050565b6000612199602f83612666565b91506121a482612bb7565b604082019050919050565b60006121bc603383612666565b91506121c782612c06565b604082019050919050565b6121db81612814565b82525050565b60006121ee828486611f9f565b91508190509392505050565b600061220582612100565b91506122118285611ffd565b915061221c82612146565b91506122288284611ffd565b91508190509392505050565b60006060820190506122496000830187611ded565b61225660208301866121d2565b8181036040830152612269818486611f72565b905095945050505050565b600060a0820190506122896000830189611ded565b61229660208301886121d2565b81810360408301526122a9818688611f72565b90506122b86060830185611f36565b6122c56080830184611f36565b979650505050505050565b600060a0820190506122e56000830189611ded565b6122f260208301886121d2565b8181036040830152612305818688611f72565b90506123146060830185611f36565b61232160808301846121d2565b979650505050505050565b600060a0820190508181036000830152612347818a8c611dfc565b9050818103602083015261235c81888a611ecf565b90508181036040830152612371818688611e59565b90506123806060830185611f36565b61238d6080830184611f36565b9998505050505050505050565b60006020820190506123af6000830184611f27565b92915050565b60006020820190506123ca6000830184611f36565b92915050565b600060208201905081810360008301526123ea8184611fc4565b905092915050565b6000602082019050818103600083015261240b8161202e565b9050919050565b6000602082019050818103600083015261242b81612051565b9050919050565b6000602082019050818103600083015261244b81612074565b9050919050565b6000602082019050818103600083015261246b81612097565b9050919050565b6000602082019050818103600083015261248b816120ba565b9050919050565b600060208201905081810360008301526124ab816120dd565b9050919050565b600060208201905081810360008301526124cb81612123565b9050919050565b600060208201905081810360008301526124eb81612169565b9050919050565b6000602082019050818103600083015261250b8161218c565b9050919050565b6000602082019050818103600083015261252b816121af565b9050919050565b600060208201905061254760008301846121d2565b92915050565b600060408201905061256260008301856121d2565b61256f60208301846121d2565b9392505050565b6000808335600160200384360303811261258f57600080fd5b80840192508235915067ffffffffffffffff8211156125ad57600080fd5b6020830192506001820236038313156125c557600080fd5b509250929050565b6000819050919050565b6000819050919050565b600081519050919050565b6000602082019050919050565b6000602082019050919050565b600082825260208201905092915050565b600082825260208201905092915050565b600082825260208201905092915050565b600082825260208201905092915050565b600082825260208201905092915050565b600081905092915050565b600082825260208201905092915050565b600081905092915050565b60006126916020840184611870565b905092915050565b600080833560016020038436030381126126b257600080fd5b83810192508235915060208301925067ffffffffffffffff8211156126d657600080fd5b6001820236038413156126e857600080fd5b509250929050565b60006126fb82612814565b915061270683612814565b9250827fffffffffffffffffffffffffffffffffffffffffffffffffffffffffffffffff0382111561273b5761273a6128d3565b5b828201905092915050565b600061275182612814565b915061275c83612814565b9250817fffffffffffffffffffffffffffffffffffffffffffffffffffffffffffffffff0483118215151615612795576127946128d3565b5b828202905092915050565b60006127ab826127f4565b9050919050565b60008115159050919050565b6000819050919050565b60007fffffffff0000000000000000000000000000000000000000000000000000000082169050919050565b600073ffffffffffffffffffffffffffffffffffffffff82169050919050565b6000819050919050565b82818337600083830152505050565b60005b8381101561284b578082015181840152602081019050612830565b8381111561285a576000848401525b50505050565b600061286b82612814565b9150600082141561287f5761287e6128d3565b5b600182039050919050565b600061289582612814565b91507fffffffffffffffffffffffffffffffffffffffffffffffffffffffffffffffff8214156128c8576128c76128d3565b5b600182019050919050565b7f4e487b7100000000000000000000000000000000000000000000000000000000600052601160045260246000fd5b6000601f19601f8301169050919050565b7f537472696e67733a20686578206c656e67746820696e73756666696369656e74600082015250565b7f54696d656c6f636b436f6e74726f6c6c65723a206d697373696e67206465706560008201527f6e64656e63790000000000000000000000000000000000000000000000000000602082015250565b7f54696d656c6f636b436f6e74726f6c6c65723a206c656e677468206d69736d6160008201527f7463680000000000000000000000000000000000000000000000000000000000602082015250565b7f54696d656c6f636b436f6e74726f6c6c65723a20696e73756666696369656e7460008201527f2064656c61790000000000000000000000000000000000000000000000000000602082015250565b7f54696d656c6f636b436f6e74726f6c6c65723a206f7065726174696f6e20616c60008201527f7265616479207363686564756c65640000000000000000000000000000000000602082015250565b7f54696d656c6f636b436f6e74726f6c6c65723a206f7065726174696f6e20697360008201527f206e6f7420726561647900000000000000000000000000000000000000000000602082015250565b7f416363657373436f6e74726f6c3a206163636f756e7420000000000000000000600082015250565b7f54696d656c6f636b436f6e74726f6c6c65723a206f7065726174696f6e20636160008201527f6e6e6f742062652063616e63656c6c6564000000000000000000000000000000602082015250565b7f206973206d697373696e6720726f6c6520000000000000000000000000000000600082015250565b7f54696d656c6f636b436f6e74726f6c6c65723a2063616c6c6572206d7573742060008201527f62652074696d656c6f636b000000000000000000000000000000000000000000602082015250565b7f416363657373436f6e74726f6c3a2063616e206f6e6c792072656e6f756e636560008201527f20726f6c657320666f722073656c660000000000000000000000000000000000602082015250565b7f54696d656c6f636b436f6e74726f6c6c65723a20756e6465726c79696e67207460008201527f72616e73616374696f6e20726576657274656400000000000000000000000000602082015250565b612c5e816127a0565b8114612c6957600080fd5b50565b612c75816127be565b8114612c8057600080fd5b50565b612c8c816127c8565b8114612c9757600080fd5b50565b612ca381612814565b8114612cae57600080fd5b5056fea26469706673582212200e829c0725bad6ab1ce584540a0aedce21d214af9b4de38c3b854e27249c0ee964736f6c63430008030033",
  "linkReferences": {},
  "deployedLinkReferences": {}
}